:020000040800F2
:10000000000002201D130008950400089704000852
:10001000990400089B0400089D04000800000000EB
:100020000000000000000000000000009F04000825
:10003000A104000800000000A3040008A5040008B3
:100040006D1300086D1300086D1300086D13000890
:100050006D1300086D1300086D1300086D13000880
:100060006D1300086D1300086D1300086D13000870
:100070006D1300086D1300086D1300086D13000860
:100080006D1300086D1300086D1300086D13000850
:100090006D1300086D1300086D1300086D13000840
:1000A0006D1300086D1300086D1300086D13000830
:1000B0006D1300086D1300086D1300086D13000820
:1000C0006D1300086D1300086D1300086D13000810
:1000D0006D1300086D1300086D1300086D13000800
:1000E0006D1300086D130008000000006D13000878
:1000F0006D1300086D1300086D1300086D130008E0
:100100006D1300086D1300086D1300086D130008CF
:100110006D1300086D1300086D1300086D130008BF
:100120006D1300086D1300086D1300086D130008AF
:100130006D1300086D1300086D1300086D1300089F
:1001400000000000000000000000000000000000AF
:100150006D1300086D1300086D1300086D1300087F
:100160006D1300086D1300086D1300086D1300086F
:100170006D1300086D1300086D13000800000000E7
:100180006D1300086D1300086D1300086D1300084F
:100190006D1300086D1300086D1300086D1300083F
:1001A0006D1300086D1300086D1300086D1300082F
:1001B0006D1300086D1300086D1300086D1300081F
:1001C0006D1300086D1300086D1300086D1300080F
:1001D0006D1300086D1300086D1300086D130008FF
:1001E0006D1300086D1300086D1300086D130008EF
:1001F0006D1300086D1300086D1300086D130008DF
:100200006D1300086D1300086D1300086D130008CE
:100210006D1300086D1300086D1300086D130008BE
:100220006D1300086D1300086D1300080000000036
:100230006D1300086D130008000000006D13000826
:100240006D1300086D1300086D1300086D1300088E
:100250006D1300086D1300086D1300086D1300087E
:100260006D1300086D1300086D1300086D1300086E
:100270006D1300086D1300086D13000800000000E6
:100280006D1300086D1300086D13000800000000D6
:08029000000000006D130008DE
:1002980010B5054C237833B9044B13B10448AFF3B8
:1002A80000800123237010BD100000200000000012
:1002B800C813000808B5034B1BB103490348AFF343
:1002C800008008BD0000000014000020C8130008CA
:1002D80082B00D4BD3F8E02042F08002C3F8E02052
:1002E800D3F8E02002F080020092009AD3F8E020D0
:1002F80042F00102C3F8E020D3F8E03003F0010334
:100308000193019B02B070470044025810B584B0B5
:100318000024009401940294039400F031F901231D
:100328008DF800308DF8014001941F228DF80820C7
:1003380087228DF809208DF80A408DF80B408DF83A
:100348000C308DF80D308DF80E408DF80F40684652
:1003580000F034F9042000F021F904B010BD72B6A1
:10036800FEE7000000B59FB04C2200210BA801F069
:100378001FF82022002103A801F01AF8022000F03B
:10038800CBFE00230093394BDA6A22F00102DA62CD
:10039800DB6A03F001030093354B9A6942F440424B
:1003A8009A619B6903F440430093009B304B9B691F
:1003B80013F4005FFAD02F4BD3F8F42042F0020276
:1003C800C3F8F420D3F8F43003F002030193019B3F
:1003D80000230293264B9A6942F440429A619B6932
:1003E80003F440430293214BDA6A42F00102DA62D5
:1003F800DB6A03F001030293029B1D4B9B6913F414
:10040800005FFAD001230B934FF480330C9302233F
:100418001493159305221692C022179218931993D4
:100428001A9308231B9300231C931D930BA800F019
:10043800F5F8B0B93F2303930323049300230593EE
:10044800082306934023079308934FF48062099288
:100458000A93042103A800F015FD20B91FB05DF828
:1004680004FBFFF77CFFFFF77AFF00BF000400588A
:10047800004802580044025808B5FFF747FF00F04B
:100488009DFEFFF76FFFFFF723FFFEE7FEE7FEE79E
:10049800FEE7FEE7FEE770477047704708B500F0D3
:1004A800BBFE08BD82B0074BD3F8F42042F002022D
:1004B800C3F8F420D3F8F43003F002030193019B4E
:1004C80002B07047004402580649CB6823F4E06341
:1004D8001B041B0C000200F4E0600343024A1A43A9
:1004E800CA60704700ED00E00000FA0500B5174B40
:1004F800DB68C3F30223C3F1070CBCF1040F28BF68
:100508004FF0040C03F1040EBEF1060F14D9033B9F
:100518004FF0FF3E0EFA0CFC21EA0C0199400EFA4E
:1005280003F322EA03031943002807DB0901C9B2D0
:10053800074B19545DF804FB0023E9E700F00F00AE
:100548000901C9B2034B1954F4E700BF00ED00E0FC
:1005580000E400E014ED00E00138B0F1807F0BD238
:100568004FF0E0235861054AF02182F8231000205B
:10057800986107221A6170470120704700ED00E07A
:10058800BFF35F8F044B5A6A22F480325A6200220A
:10059800C3F89420704700BF00ED00E040F0010070
:1005A800054BC3F894005A6A42F480325A62BFF38A
:1005B8004F8FBFF36F8F704700ED00E04278164B06
:1005C800C3F898200378FBB14368134AC2F89C30FB
:1005D800017BC37A1B0643EA0173817A43EAC1436C
:1005E800417B43EA8143817B43EA4143C17B43EA40
:1005F8000143417A43EA0123017A43EA410301783E
:100608000B43C2F8A0307047034B0022C3F89C206C
:10061800C3F8A020704700BF00ED00E0002800F0FC
:10062800188338B50446036813F0010F25D0944A9F
:10063800136903F03803926A102B15D0182B0FD0CA
:100648006368B3F5803F3FD0002B53D18C4B1A68B9
:1006580022F480321A601A6822F480221A6038E084
:1006680002F00302022AEBD1854B1B6813F4003F0A
:1006780003D06368002B00F0EE82236813F0020FAA
:1006880000F0A1807E4A1369926A13F038035AD0A9
:10069800182B55D0E368002B00F0DE8078490A68F3
:1006A80022F0190213430B6000F0C2FD0546744B9B
:1006B8001B6813F0040F40F0AD8000F0B9FD401B3B
:1006C8000228F4D90320CDE26D4A136843F480333D
:1006D800136063682BB300F0ABFD0546684B1B68DD
:1006E80013F4003FC9D100F0A3FD401B6428F5D9DD
:1006F8000320B7E2B3F5A02F09D0614B1A6822F4A2
:1007080080321A601A6822F480221A60E1E75C4B92
:100718001A6842F480221A601A6842F480321A6019
:10072800D7E700F085FD0546554B1B6813F4003FDD
:10073800A3D000F07DFD401B6428F5D9032091E289
:1007480012F0030FA6D14E4B1B6813F0040F03D011
:10075800E368002B00F08182494A136823F01903EB
:10076800E1680B43136000F063FD0546444B1B68CA
:1007780013F0040F06D100F05BFD401B0228F5D9E9
:1007880003206FE200F05AFD41F20303984212D8A9
:100798002269402A07D03A494B6823F47C3343EA5C
:1007A80002334B600FE0364A536823F47C3343F43A
:1007B8000033536007E0324A536823F0FE4321694F
:1007C80043EA01635360236813F0100F00F0888038
:1007D8002B4A136903F03803926A082B56D0182B5A
:1007E80050D0E369002B00F0B880254A136843F025
:1007F8008003136000F01CFD0546214B1B6813F4B1
:10080800807F40F0888000F013FD401B0228F4D957
:10081800032027E200F012FD41F20303984212D8A8
:100828002269402A07D016494B6823F47C3343EAEF
:1008380002334B60C7E7124A536823F47C3343F40E
:1008480000335360BFE70E4A536823F0FE43216923
:1008580043EA01635360B6E7094A136823F00103CA
:10086800136000F0E5FC0546054B1B6813F0040F08
:10087800A9D000F0DDFC401B0228F5D90320F1E1E6
:100888000044025802F00302012AAAD1A14B1B68B6
:1008980013F4807F03D0E369802B40F0E08100F0FF
:1008A800CDFC41F20303984212D8226A202A07D0CD
:1008B80098494B6823F0F84343EA82634B600FE0A2
:1008C800944A536823F0F84343F08043536007E0A9
:1008D800904AD36823F07C53216A43EA0163D360CA
:1008E800236813F0080F60D06369002B49D0894A48
:1008F800536F43F00103536700F09AFC0546854B9C
:100908005B6F13F0020F50D100F092FC401B0228DD
:10091800F5D90320A6E100F091FC41F203039842C7
:1009280012D8226A202A07D07A494B6823F0F84364
:1009380043EA82634B60D3E7764A536823F0F8436F
:1009480043F080435360CBE7724AD36823F07C536B
:10095800216A43EA0163D360C2E76E4A136823F051
:100968008003136000F064FC05466A4B1B6813F4AF
:10097800807FB5D000F05CFC401B0228F5D903202D
:1009880070E1644A536F23F00103536700F050FC91
:100998000546604B5B6F13F0020F06D000F048FC71
:1009A800401B0228F5D903205CE1236813F0200FCF
:1009B80029D0A3699BB1574A136843F48053136045
:1009C80000F036FC0546534B1B6813F4005F1AD140
:1009D80000F02EFC401B0228F5D9032042E14D4AC5
:1009E800136823F48053136000F022FC0546494B3A
:1009F8001B6813F4005F06D000F01AFC401B0228A5
:100A0800F5D903202EE1236813F0040F21D1636A7E
:100A1800002B00F026813F4A126902F03802182A9A
:100A280000F0EE80022B79D03A4A136823F08073E5
:100A3800136000F0FDFB0446364B1B6813F0007F83
:100A480000F0DC8000F0F4FB001B0228F4D903203E
:100A580008E1314A136843F48073136000F0E8FB3F
:100A680005462D4B1B6813F4807F06D100F0E0FB90
:100A7800401B6428F5D90320F4E0A368012B0AD0B1
:100A88000BBB244B1A6F22F001021A671A6F22F06F
:100A980004021A6704E01F4A136F43F00103136747
:100AA800A36833B300F0C4FB05461A4B1B6F13F061
:100AB800020FACD100F0BCFB401B41F288339842D6
:100AC800F3D90320CEE0052B09D0124B1A6F22F080
:100AD80001021A671A6F22F004021A67E0E70D4B49
:100AE8001A6F42F004021A671A6F42F001021A677D
:100AF800D6E700F09DFB0546064B1B6F13F0020F6F
:100B080085D000F095FB401B41F288339842F3D919
:100B18000320A7E00044025800480258594A1368C5
:100B280023F08073136000F083FB0546554B1B6868
:100B380013F0007F06D000F07BFB401B0228F5D99C
:100B480003208FE04F4B996A4F4A0A40A16AE06A36
:100B580041EA00110A439A62226B013AC2F3080281
:100B6800616B0139490289B20A43A16B0139090451
:100B780001F4FE010A43E16B0139090601F0FE4167
:100B88000A431A63DA6A22F00102DA62596B3F4AB1
:100B98000A40A16C42EAC1025A63DA6A22F00C02E6
:100BA800216C0A43DA62DA6A22F00202616C0A43B3
:100BB800DA62DA6A42F48032DA62DA6A42F40032DD
:100BC800DA62DA6A42F48022DA62DA6A42F0010210
:100BD800DA621A6842F080721A6000F029FB044653
:100BE800284B1B6813F0007F06D100F021FB001B87
:100BF8000228F5D9032035E0002033E0002031E059
:100C0800204A916A106B012B2DD001F00303A26AD0
:100C180093422AD1C1F30511E36A994227D1C0F35F
:100C28000802236B013B9A4223D1C0F34622636B2F
:100C3800013B9A421FD1C0F30642A36B013B9A4283
:100C48001BD1C0F30660E36B013B984217D100202B
:100C580008E001207047012004E0012002E00120A3
:100C680000E0002038BD0120FCE70120FAE7012060
:100C7800F8E70120F6E70120F4E70120F2E7012078
:100C8800F0E700BF004402580CFCFFFF0700FFFF1D
:100C9800744B1B6903F03803102B00F0DE80182B0F
:100CA80010D00BB1704870476E4B1B6813F0200FC3
:100CB80000F0D5806B4B1868C0F3C1006B4B23FA6A
:100CC80000F0704710B4674A916A01F00301946A12
:100CD800C4F30510D36A03F0010C536BC3F3CC03C0
:100CE8000CFB03F307EE903AF8EE677A14F47C7F76
:100CF80000F09380012965D0022900F09180E1B1CC
:100D080007EE100AF8EE476A9FED596A86EE267AD2
:100D1800544B1B6BC3F3080306EE903AF8EE666A71
:100D28009FED546A67EE867A76EEA77AF7EE006A48
:100D380077EEA67A27EE277A60E0136813F0200F83
:100D480023D011461268C2F3C102484BD34007EEC4
:100D5800103AF8EE476A07EE100AB8EE476A86EED0
:100D6800867A0B6BC3F3080306EE903AF8EE666AD0
:100D78009FED406A67EE867A76EEA77AF7EE006A0C
:100D880077EEA67A27EE277A38E007EE100AF8EE13
:100D9800476A9FED396A86EE267A324B1B6BC3F39E
:100DA800080306EE903AF8EE666A9FED326A67EE3F
:100DB800867A76EEA77AF7EE006A77EEA67A27EEBD
:100DC800277A1BE007EE100AF8EE476A9FED286ABB
:100DD80086EE267A234B1B6BC3F3080306EE903A84
:100DE800F8EE666A9FED236A67EE867A76EEA77A52
:100DF800F7EE006A77EEA67A27EE277A194B1B6B77
:100E0800C3F34623013307EE903AF8EE677AC7EE4C
:100E1800276AFCEEE67A17EE900A5DF8044B7047F5
:100E280007EE100AF8EE476A9FED146A86EE267AF6
:100E38000C4B1B6BC3F3080306EE903AF8EE666A98
:100E48009FED0C6A67EE867A76EEA77AF7EE006A6F
:100E580077EEA67A27EE277AD0E709487047034845
:100E6800704700BF0044025800093D000090D003BD
:100E78000024744A000000390024744C20BCBE4B86
:100E880040787D01002800F0328170B50D46044697
:100E98009B4B1B6803F00F038B420BD2984A1368D5
:100EA80023F00F030B431360136803F00F038B4207
:100EB80040F01F81236813F0040F0CD02269914B76
:100EC8009B6903F070039A4205D98E498B6923F018
:100ED80070031A438A61236813F0080F0CD0626903
:100EE800884BDB6903F070039A4205D98549CB69C1
:100EF80023F070031A43CA61236813F0100F0CD053
:100F0800A269804BDB6903F4E0639A4205D97D4905
:100F1800CB6923F4E0631A43CA61236813F0200FF6
:100F28000CD0E269774B1B6A03F070039A4205D92B
:100F380074490B6A23F070031A430A62236813F09A
:100F4800020F0CD0E2686F4B9B6903F00F039A42C3
:100F580005D96C498B6923F00F031A438A6123680A
:100F680013F0010F41D0674A936923F47063A168B5
:100F78000B4393616368022B0AD0032B27D0012B04
:100F88002CD0604A126812F0040F06D10120ADE09F
:100F9800126812F4003F00F0AE805A490A6922F044
:100FA800070213430B6100F043F90646554B1B69D2
:100FB80003F038036268B3EBC20F16D000F038F9BB
:100FC800801B41F288339842F0D903208EE04D4AC5
:100FD800126812F0007FE0D1012087E0494A1268C8
:100FE80012F4807FD9D1012080E0236813F0020F2A
:100FF8000CD0E268434B9B6903F00F039A4205D279
:1010080040498B6923F00F031A438A613C4B1B68E4
:1010180003F00F03AB420AD9394A136823F00F03D0
:101028002B431360136803F00F03AB4265D12368A9
:1010380013F0040F0CD02269324B9B6903F0700344
:101048009A4205D22F498B6923F070031A438A61AB
:10105800236813F0080F0CD062692A4BDB6903F090
:1010680070039A4205D22749CB6923F070031A43CB
:10107800CA61236813F0100F0CD0A269214BDB69F9
:1010880003F4E0639A4205D21E49CB6923F4E06376
:101098001A43CA61236813F0200F0CD0E269194B78
:1010A8001B6A03F070039A4205D216490B6A23F0B3
:1010B80070031A430A62FFF7EBFD12498B69C3F309
:1010C8000323114AD35C03F01F03D8408B6903F054
:1010D8000F03D35C03F01F0320FA03F30B4A1360DA
:1010E8000B4B18600B4B186800F040F870BD0120DE
:1010F80070470120FAE70120F8E70120F6E700BF72
:101108000020005200440258E01300080C000020A0
:101118000800002004000020134BDB6813F0040FC4
:1011280007D1114BDB6803F0070383421AD0012073
:10113800704710B50C4AD36823F007031843D060F2
:1011480000F076F80446084B5B6813F4005F07D19B
:1011580000F06EF8001BB0F57A7FF4D9012000E0AA
:10116800002010BD0020704700480258104B1B7823
:101178000BB90120704710B504464FF47A70B0FBE4
:10118800F3F30C4A1068B0FBF3F0FFF7E5F968B920
:101198000F2C01D901200AE0002221464FF0FF3030
:1011A800FFF7A4F9044B1C60002000E0012010BDEB
:1011B80000000020080000200400002010B50320D3
:1011C800FFF782F9FFF764FD0F498B69C3F3032327
:1011D8000E4AD35C03F01F03D8408B6903F00F035A
:1011E800D35C03F01F0320FA03F3094A1360094B89
:1011F80018600F20FFF7BAFF10B10124204610BD78
:101208000446FFF74FF9F9E700440258E0130008D5
:101218000C00002008000020034B1B78034A1168CB
:101228000B441360704700BF000000202C00002012
:10123800014B1868704700BF2C000020014B18684C
:10124800000C70470010005C274AD2F8883043F43D
:101258007003C2F88830254B1B6803F00F03062B78
:1012680006D8224A136823F00F0343F007031360DC
:101278001F4B1A6842F001021A6000221A611968AD
:101288001C4A0A401A60194B1B6813F0080F06D055
:10129800164A136823F00F0343F007031360144B37
:1012A80000229A61DA611A62134999621349D96274
:1012B800134919635A639963DA6319645A6419689C
:1012C80021F4802119601A660E4B1A680E4B1340E0
:1012D800B3F1005F03D20D4B0122C3F808210C4B78
:1012E80043F2D2021A60704700ED00E0002000527D
:1012F800004402587FEDF6EA000202020000FF01F6
:10130800800201010010005C0000FFFF0080005116
:1013180000400052DFF834D0FFF796FF0C480D4923
:101328000D4A002302E0D458C4500433C4188C4238
:10133800F9D30A4A0A4C002301E013600432A2429E
:10134800FBD300F011F8FFF797F870470000022070
:101358000000002010000020F813000810000020F2
:1013680030000020FEE7000070B50D4D0D4C641BE9
:10137800A4100026A64209D10B4D0C4C00F020F811
:10138800641BA4100026A64205D170BD55F8043B85
:1013980098470136EEE755F8043B98470136F2E7DF
:1013A800F0130008F0130008F0130008F413000805
:1013B80002440346934200D1704703F8011BF9E742
:1013C800F8B500BFF8BC08BC9E467047F8B500BF2A
:0813D800F8BC08BC9E467047FA
:1013E00000000000010203040102030406070809CB
:0413F000BD02000832
:0413F4009902000852
:1013F80001000000100000000090D0030090D0030E
:040000050800131DBF
:00000001FF
